{
  "_format": "hh-sol-artifact-1",
  "contractName": "Attack",
  "sourceName": "contracts/sublesson/ReentrantVulnerable.sol",
  "abi": [
    {
      "inputs": [
        {
          "internalType": "address",
          "name": "_reentrantVulnerableAddress",
          "type": "address"
        }
      ],
      "stateMutability": "nonpayable",
      "type": "constructor"
    },
    {
      "stateMutability": "payable",
      "type": "fallback"
    },
    {
      "inputs": [],
      "name": "attack",
      "outputs": [],
      "stateMutability": "payable",
      "type": "function"
    },
    {
      "inputs": [],
      "name": "getBalance",
      "outputs": [
        {
          "internalType": "uint256",
          "name": "",
          "type": "uint256"
        }
      ],
      "stateMutability": "view",
      "type": "function"
    },
    {
      "inputs": [],
      "name": "reentrantVulnerable",
      "outputs": [
        {
          "internalType": "contract ReentrantVulnerable",
          "name": "",
          "type": "address"
        }
      ],
      "stateMutability": "view",
      "type": "function"
    }
  ],
  "bytecode": "0x608060405234801561001057600080fd5b5060405161066a38038061066a833981810160405281019061003291906100c4565b61004c67c20d54e34f6d5e0b60c01b6100ac60201b60201c565b610066672b58cf4eb936187260c01b6100ac60201b60201c565b806000806101000a81548173ffffffffffffffffffffffffffffffffffffffff021916908373ffffffffffffffffffffffffffffffffffffffff1602179055505061013f565b50565b6000815190506100be81610128565b92915050565b6000602082840312156100da576100d9610123565b5b60006100e8848285016100af565b91505092915050565b60006100fc82610103565b9050919050565b600073ffffffffffffffffffffffffffffffffffffffff82169050919050565b600080fd5b610131816100f1565b811461013c57600080fd5b50565b61051c8061014e6000396000f3fe6080604052600436106100385760003560e01c806312065fe01461019357806333684a05146101be5780639e5faafc146101e957610039565b5b61004d672d4524bda4d8e96f60c01b6101f3565b61006167308d02c7dc4d1c2260c01b6101f3565b61007567a2fce4fdb1f8e6bf60c01b6101f3565b670de0b6b3a764000060008054906101000a900473ffffffffffffffffffffffffffffffffffffffff1673ffffffffffffffffffffffffffffffffffffffff16311061017c576100cf674018a637d61d333d60c01b6101f3565b6100e367f367d3f610c4141c60c01b6101f3565b6100f7671ef6994145f4bd9460c01b6101f3565b60008054906101000a900473ffffffffffffffffffffffffffffffffffffffff1673ffffffffffffffffffffffffffffffffffffffff16633ccfd60b6040518163ffffffff1660e01b8152600401600060405180830381600087803b15801561015f57600080fd5b505af1158015610173573d6000803e3d6000fd5b50505050610191565b61019067171906122d20ed6260c01b6101f3565b5b005b34801561019f57600080fd5b506101a86101f6565b6040516101b5919061046b565b60405180910390f35b3480156101ca57600080fd5b506101d361023a565b6040516101e09190610450565b60405180910390f35b6101f161025e565b005b50565b600061020c67ae4e1939d243e3e460c01b6101f3565b610220677e4d4b983d9ce7e260c01b6101f3565b610234676912b0c4f0a027b260c01b6101f3565b47905090565b60008054906101000a900473ffffffffffffffffffffffffffffffffffffffff1681565b61027267291011c9c4a4b05760c01b6101f3565b61028667c42ae72e96f4aa6360c01b6101f3565b61029a6776ea0a21e4a3008160c01b6101f3565b6102ae672c1fef4c2f7acade60c01b6101f3565b670de0b6b3a76400003410156102c357600080fd5b6102d76793e51e58121600fd60c01b6101f3565b6102eb670c8f7a924150a27760c01b6101f3565b6102ff67e1f983da4fddce1a60c01b6101f3565b60008054906101000a900473ffffffffffffffffffffffffffffffffffffffff1673ffffffffffffffffffffffffffffffffffffffff1663d0e30db0670de0b6b3a76400006040518263ffffffff1660e01b81526004016000604051808303818588803b15801561036f57600080fd5b505af1158015610383573d6000803e3d6000fd5b505050505061039c67d2d1c30efc0996f660c01b6101f3565b6103b067723e22fa5e5df49a60c01b6101f3565b60008054906101000a900473ffffffffffffffffffffffffffffffffffffffff1673ffffffffffffffffffffffffffffffffffffffff16633ccfd60b6040518163ffffffff1660e01b8152600401600060405180830381600087803b15801561041857600080fd5b505af115801561042c573d6000803e3d6000fd5b50505050565b61043b816104b0565b82525050565b61044a816104a6565b82525050565b60006020820190506104656000830184610432565b92915050565b60006020820190506104806000830184610441565b92915050565b600073ffffffffffffffffffffffffffffffffffffffff82169050919050565b6000819050919050565b60006104bb826104c2565b9050919050565b60006104cd826104d4565b9050919050565b60006104df82610486565b905091905056fea2646970667358221220b6c5bef5bd125b5d03d99c5c55b486092612c34338ec8dd772159f49f3f43b5864736f6c63430008070033",
  "linkReferences": {},
  "deployedLinkReferences": {}
}